:020000040800F2
:10000000180B00202103000875240008111B0008AC
:1000100071240008091B0008812500080000000069
:100020000000000000000000000000007D24000827
:100030000D1B00080000000079240008812400083E
:100040003B0300083B0300083B0300083B03000898
:100050003B0300083B0300083B0300083B03000888
:100060003B0300083B0300083B0300083B03000878
:100070003B0300083B0300083B0300083B03000868
:100080003B0300083B0300083B0300083B03000858
:100090003B0300083B0300083B0300083B03000848
:1000A0003B0300083B0300083B0300083B03000838
:1000B0003B0300083B0300083B0300083B03000828
:1000C0003B0300083B0300083B0300083B03000818
:1000D0003B0300083B0300083B0300083B03000808
:1000E0003B0300083B0300083B0300083B030008F8
:1000F0003B0300083B0300083B0300083B030008E8
:100100003B0300083B0300085D2500083B03000893
:100110003B0300083B0300083B0300083B030008C7
:100120003B0300083B0300083B0300083B030008B7
:100130003B0300083B0300083B0300083B030008A7
:100140003B0300083B0300083B0300083B03000897
:100150003B0300083B0300083B0300083B03000887
:100160003B0300083B0300083B0300083B03000877
:100170003B0300083B0300083B03000800000000AD
:100180003B0300083B03000800F002F800F0B8F859
:100190000AA090E8000C82448344AAF10107DA45E2
:1001A00001D100F0ADF8AFF2090EBAE80F0013F07C
:1001B000010F18BFFB1A43F001031847BC9C000055
:1001C000DC9C00000A444FF0000C10F8013B13F0D7
:1001D000070408BF10F8014B1D1108BF10F8015BA0
:1001E000641E05D010F8016B641E01F8016BF9D193
:1001F00013F0080F1EBF10F8014BAD1C0C1B09D1EA
:100200006D1E58BF01F801CBFAD505E014F8016B5B
:1002100001F8016B6D1EF9D59142D6D370470000ED
:100220000023002400250026103A28BF78C1FBD8FF
:10023000520728BF30C148BF0B6070476E2900F0DD
:100240004884702900F08B85662909F0548065295F
:1002500009F05180672909F04E80612909F04D802D
:1002600003681B0A28BF41F08001692900F06E81F4
:10027000642900F06B81752900F068816F2900F016
:100280001985782900F05785E92900F0B384E4291D
:1002900000F0B084F52900F0AD84EF2900F0168558
:1002A000F82900F056850368DB0928BF41F080017A
:1002B000632901F0F381732901F0F881E32901F04A
:1002C0000382F32901F00882002070471FB509F06E
:1002D00005F89DE8030000F0B1FA01F0DDFA040032
:1002E0000020002108F0D2FA401C606000200021AC
:1002F00008F0B6FAE06000F073FA1FBD10B510BD4B
:1003000001F09CFA1146FFF7E1FF06F0E5FE01F06F
:100310008DFB03B4FFF7F2FF03BC00F0BFFD00004C
:100320000948804709480047FEE7FEE7FEE7FEE789
:10033000FEE7FEE7FEE7FEE7FEE7FEE704480549C5
:10034000054A064B70470000052500088901000892
:1003500018050020180B002018070020180700209F
:1003600070B5064600F04EFA056806F10B0020F065
:100370000704B4429CBF002070BD2B466A68BAB126
:100380001068A04210D304F1080188423CBF5068B5
:10039000586007D35168101941601168091B01604A
:1003A00058601460101D70BD13465268002AE7D1D2
:1003B0002146284600F02EFA0028DED170BD70B527
:1003C0000446051F00F01EFA0068002C14BF4468A4
:1003D00070BD002C18BFAC423CBF20466468F8D307
:1003E00001680A18AA4218BF456003D12A68054669
:1003F0001144016028684119A1421CBF6C6070BDA6
:100400006168696021680844286070BD53EA020C85
:1004100000F069802DE9F04B4FF00006002B1FBF64
:10042000B3FA83F503FA05F424FA05F65E4012BF29
:100430001643B2FA82F502FA05F4C5F120051EBF93
:1004400022FA05FC44EA0C04203556EA044C4FEA33
:10045000144418BF641C4FF000084FF0000990428C
:1004600071EB030C39D3002919BFB1FA81F701FAF6
:1004700007F6B0FA80F700FA07F6C7F120071EBFAB
:1004800020FA07FC46EA0C062037B6FBF4FCA7EB83
:100490000507103F07F01F0BCBF120062CFA06F6DC
:1004A0000CFA0BFB44BFB3460026202FA4BF5E46C8
:1004B0004FF0000B5BEA060C08BF4FF0010B19EB85
:1004C0000B0948EB0608ABFB027C06FB02CC0BFBDE
:1004D00003CCC01B71EB0C01C1E70B460246414641
:1004E0004846BDE8F08B13B54FF000004FF0000117
:1004F000AFF30080BDE81C40704700001CB50C46FF
:10050000064B7B4469460090204600F0FCFA044606
:100510000020694600F00AFB20461CBD27060000AB
:100520000FB41CB5084B06AA7B4469460090059899
:1005300000F0E9FA04460020694600F0F7FA204688
:100540001CBC5DF814FB0000010600002DE9F04121
:100550000646002410687529314616A510D000F013
:1005600024FA002802DA404213A507E031688A071E
:1005700001D512A502E0490704D511A5012401E027
:1005800000F01CFA00210A2206F1240709E0B0FB62
:10059000F2FCB0FBF2F302FB1C003030785418463A
:1005A000491C0028F3D123462A463046BDE8F041D5
:1005B00000F036BA000000002D0000002B00000003
:1005C000200000002DE9F05F894604464FF0000A44
:1005D000DFF874B1FB44C0F820A02046E1688847EA
:1005E000002874D0252806D0D4E901219047206A3C
:1005F000401C2062F1E700265F462046E1688847FC
:100600002028054607DB312D05D2781910F8200C7B
:1006100008B10643F1E7B00701D526F00406C4F897
:100620001CA00027C4F818A02A2D09D0284608F0DD
:100630000FF938B304EB8708303DC8F8185019E0BB
:1006400059F8041B204604EB87029161E168884752
:10065000012F054618D1E069002820DA26F020068F
:100660001DE0D8F8180000EB800005EB40003038A2
:10067000C8F818002046E1688847054608F0E8F801
:100680000028EED1012F0AD02E2D08D12046E16896
:1006900088477F1C0546022F46F02006C4DBA06970
:1006A000002803DA404246F00106A061F00701D0BD
:1006B00026F010066C2D0BD0682D09D04C2D39D0AA
:1006C0006A2D35D0742D35D07A2D33D016E038E030
:1006D000E1682F4620468847B842054609D16C2F6D
:1006E00026D04FF48060E1680643204688470546DF
:1006F00004E06C2F1AD04FF4807006430DB3A5F1BF
:100700004100192802D8203546F400664A46294699
:10071000204626604E46FFF791FD80B101280BD0A0
:10072000F61D26F0070000F1080956E74020E4E72F
:100730008020D8E70020D6E706F104094DE72846D7
:1007400052E7206ABDE8F09F8891000010B5431C75
:1007500002E010F8011B71B18107FAD14FF00132AC
:1007600002C88C1A8C4314EAC211F9D0C01A0A06C6
:1007700003D0C01E10BDC01A10BD0A0401D0801ED7
:1007800010BD0902FCD0401E10BD4FF0000200B5A4
:10079000134694469646203922BFA0E80C50A0E8A4
:1007A0000C50B1F12001BFF4F7AF090728BFA0E852
:1007B0000C5048BF0CC05DF804EB890028BF40F81E
:1007C000042B08BF704748BF20F8022B11F0804F60
:1007D00018BF00F8012B7047704770477047000042
:1007E00070B5064C7C44064D7D4403E020682044EF
:1007F0008047241DAC42F9D170BD0000DC97000099
:10080000DC97000000487047B8010020704770472F
:100810007047704738B504460A4600206946AFF372
:100820000080002808BF38BD02460099204600F02D
:100830003FFB012038BD012000F07DBFF8B5AFF3CC
:100840000080054600200C46102000BF0646A8196F
:10085000A0420DD9324669460020AFF30080070060
:1008600008BF00F068FF0098A04218BF0546C419F1
:10087000FFF7C8FF05600746F01D20F00700461986
:10088000284600F00AF8B44208BFF8BDA21B314662
:100890003868BDE8F84000F00BBB00210160C0E9FA
:1008A00001107047102070472DE9F04791460C4623
:1008B0008046FFF7A7FF0768604234EA000001D1D5
:1008C000042C02D20520BDE8F087601E40F0070628
:1008D00009F10B0020F007054D459CBF0020BDE845
:1008E000F0873B467A6882B31468101D404206EADE
:1008F000000C644525D9A4EB0C00854221D8BCF13D
:10090000000F0BD0104601686244A1EB0C0111608E
:1009100041685160C0F800C058600346116805F195
:100920000800814205D35019491B016015605860C9
:10093000034652F8040F58600020C8F80020BDE8B4
:10094000F08713465268002ACED129463846FFF771
:1009500061FF0028C5D10620BDE8F08770B50446C8
:1009600085690068C10601D5302600E02026C00751
:1009700007D070BDD4E9012130469047206A401C61
:1009800020626D1EF6D570BD70B50446856900788D
:10099000C00707D170BDD4E9012120209047206A0B
:1009A000401C20626D1EF6D570BD09684A0501D550
:1009B00040B27047C905FCD500B2704709684A05C6
:1009C00001D5C0B27047C905FCD580B2704770B57B
:1009D0000C460546012A05D02878800600D5EA692C
:1009E000002302E0012305E05B1C934202D2E05C9D
:1009F0000028F9D1A869E618C01AA861286A184425
:100A000028622846FFF7AAFF04E0D5E9012114F87F
:100A1000010B9047B442F8D32846FFF7B5FF70BDED
:100A20002DE9F0470D4699469246044600F1240808
:100A30000168880604D5E06921F01001216000E01A
:100A40000120A84201DD471B00E00027A1697A19B7
:100A500002EB0900081AA0612078C00602D42046E3
:100A6000FFF77CFF002608E0D4E901211AF8060010
:100A70009047206A401C761C20624E45F4DB2078AB
:100A8000C0060AD52046FFF769FF06E0D4E9012138
:100A900030209047206A401C2062381EA7F10107D1
:100AA000F4DC07E0D4E9012118F805009047206A3A
:100AB000401C2062281EA5F10105F3DC2046FFF74B
:100AC00063FF2078000602D50220BDE8F0870120F0
:100AD000FBE711680268006A530501D508700AE057
:100AE000D30501D5088006E0130603D5C217C1E976
:100AF000000200E0086001207047000001694A1C04
:100B000002610878704700B58FB0CDE9013100214E
:100B1000059105497944CDE9031011466846FFF770
:100B200051FD0FB000BD0000E5FFFFFF0A6802F8AD
:100B3000010B0A60704700002DE9FF5F15468A46E9
:100B40000446DFF8AC80F8440027D8E900103E46A0
:100B5000CDE9001010E03AF816106A4602A800F03D
:100B6000BFFD411C07D02178890603D5E2693918F9
:100B700091420DD80744761C2078800602D5E069A2
:100B8000B84205DDAE42E6DB3AF816000028E2D1B5
:100B9000A069C01BA0612046FFF7E0FED8E9001065
:100BA000CDE90010002017E03AF818106A4602A8B4
:100BB00000F096FDB0F1FF3F81460BD000250DF10E
:100BC000080B05E0D4E901211BF8050090476D1CD6
:100BD0004D45F7D308F10100B0428046E4DB206ABE
:100BE000384420622046FFF7CFFEBDE8FF9F00009B
:100BF0002A8C00002DE9F0418046D21D22F0070228
:100C00000025D2E90002F52915A614D0011E72F1C3
:100C1000000106DA0023D0EB030063EB020211A609
:100C200008E0D8F800108B0701D50FA602E04907AD
:100C300001D50EA601251146002408F1240704E081
:100C400000F050F930323A55641C50EA0102F7D1F5
:100C50002B46324621464046BDE8F041FFF7E0BE54
:100C6000000000002D0000002B000000200000000C
:100C700030B4002100F1240408E002F00705D20896
:100C8000303542EA4372DB086554491C52EA0305D9
:100C9000F3D10468002310A2250708D504F020042E
:100CA0000C4304D0C46901230CA2641EC46130BC8F
:100CB000FFF7B6BE10B5044621461068FFF77EFE6A
:100CC00002462046BDE810400023D1E7D21D22F0A5
:100CD0000701D1E90023CBE700000000300000004D
:100CE000F0B40D460188090502D5214C7C4402E090
:100CF0001F4C7C440E34002100F1240608E002F071
:100D00000F071209E75D42EA03721B097754491C79
:100D100052EA0307F3D102780023120704D5702D9D
:100D200006D009B1022311342246F0BCFFF778BE89
:100D300001231034F8E770B504460D4621461068CB
:100D4000FFF73CFE024629462046BDE870400023DE
:100D5000C6E7D21D22F00703D3E90023C0E70368EA
:100D6000126843F0200303600823C3610023B7E740
:100D70008C8A000010B5002000F0D6FCFFF7BEFA08
:100D8000BDE81040012000F089B810B5203AC0F04D
:100D90000B80B1E81850A0E81850B1E81850A0E84E
:100DA0001850203ABFF4F5AF5FEA027C24BFB1E8E7
:100DB0001850A0E8185044BF18C918C0BDE810402A
:100DC0005FEA827C24BF51F8043B40F8043B08BF33
:100DD0007047D20728BF31F8023B48BF11F8012BFA
:100DE00028BF20F8023B48BF00F8012B70470000E5
:100DF00030B44FF0013C50F8042B51F8043BCCFACE
:100E000052F4D51A20D1FCB950F8042B51F8043B08
:100E1000CCFA52F4D51A17D1B4B950F8042B51F8C2
:100E2000043BCCFA52F4D51A0ED16CB950F8042B0D
:100E300051F8043BCCFA52F4D51A05D1002CDAD083
:100E400030BC4FF00000704729BAB1FA81F111F0BF
:100E50001801D1F120008440F2D1CA40CB4012F0F9
:100E6000FF0213F0FF0330BCD01A704780E8FF1F69
:100E7000C0F834D0C0F838E0C0F83CE04FF00000D3
:100E8000704700BF80EC200B704700BF80EC200B48
:100E9000704700BFC0EC200B7047000001491820CC
:100EA000ABBEFEE72600020000487047B0010020FC
:100EB000034640688C46002818BF88423CBF034662
:100EC0004068F8D318681844884207D00CF1030032
:100ED00020F00700001D411A521A0146081D0A6041
:100EE000FFF76DBA30B5B0F10A0271F100034FEAB5
:100EF000900E4EEA817EB0EB0E0061EB91014FEA5D
:100F0000101E4EEA017E10EB0E0041EB11114FEA6C
:100F1000102E4EEA016E10EB0E0041EB11214FEA4C
:100F2000104E4EEA014E10EB0E0041EB11414018FD
:100F300041F100014FEAD00040EA41704FEAD1018F
:100F40004FEA810444EA907410EB800544EB0104FD
:100F50006D1944EB0404521BA3414FF0000348BF3A
:100F60000A3200D530BD401C41F1000130BD2DE9F1
:100F7000FF4F0C461E464FF0FF378BB0D2E9000101
:100F8000DDF860800A908A46C1F30A5505B93D46EE
:100F9000002108464FF00000BAF1000F00F44000B5
:100FA00005DA00EB80004FF4400101EA50004FEAFF
:100FB0009059B9F1010F00DDB9460A9850EA4A008C
:100FC0000ED044F61050A5F2FF3545432F14B8F16A
:100FD000000F1ED07542291E1EDDC9F100021CE063
:100FE000B8F1010F4FF0000001D0302103E0F243CF
:100FF00005E02154401CB042FBDB304600220021BA
:1010000021540B99C1F80880C1E900200FB0BDE858
:10101000F08FBD1B6D1CDEE74A4600DA694206A868
:1010200000F092FC06AB93E8070003AB83E80700EF
:1010300050460A9907F02CF88DE80700A0F50050FB
:101040001F3800900398002D0ADD42F21F014A4626
:101050000844002303A90390684607F095FA09E0C5
:10106000A0F500504A461F38002303A903906846A4
:1010700007F09FFA8DE807000004000C03D04FF042
:10108000FF30410800E01046B8F1000F03D0002205
:10109000009215461EE0751E05D4FFF723FF30327F
:1010A00062556D1EF9D5B3460122084302D00022D5
:1010B0007F1C04E02078302801D100227F1E002A06
:1010C000099784D01DE0112D07DAFFF70BFF3032AE
:1010D00062556D1C50EA0102F5D1084302D0009818
:1010E000C8B10EE00021681E05E0235C625C635419
:1010F0002254401E491C8142F7DBAB46A81B401E10
:101100000990002004F80B000B98099AC0F8088099
:10111000C0E9002B7AE711264FF0000857E72DE9C8
:10112000F04F88460446D21D22F0070191B0D1E964
:101130000001CDE90A0107F073FB02460B98C00FCE
:1011400001D02D2007E02068810701D52B2002E087
:10115000202101EAC000032A099001D0072A05DBFB
:1011600003464146204600F0AFFB0BE120788006A5
:1011700001D5E06900E00620B8F1650F814606D090
:10118000B8F1660F18D0B8F1670F70D131E00020C8
:10119000B9F1110F009001DB112301E009F1010306
:1011A0000AAA01A90CA8FFF7E2FEDDE90C700026EF
:1011B00009F10105834647E001204B4600904FF0BE
:1011C00000470AAA01A90CA8FFF7D1FEDDE90DB07E
:1011D0000C995D46002610B909F101000D18B9EB14
:1011E000050003D4C0F1FF3609F10105A5EB0900A4
:1011F0002BE0B9F1010F01DA4FF001090020B9F13C
:10120000110F0090484601DD112300E003460AAAB1
:1012100001A90CA8FFF7ABFEDDE90C704D460026D6
:101220008346207800070AD4AB4500DA5D4601A862
:10123000012D04DD411911F8011C302907D04F455B
:1012400002DA17F1040F04DA012082460FE06D1E66
:10125000EEE7002F02DCED1B3E4403E0781CA842C1
:1012600000DD7D1CB81B00F1010A4FF0004720781B
:10127000000703D4AA4501DB4FF0FF3A0021B7F184
:10128000004F0DF143088DF8431024D002202B238A
:10129000002F01DA7F422D230A21021EA0F1010056
:1012A00000DC5FB197FBF1FC97FBF1F201FB1C7CCA
:1012B00017460CF1300C08F801CDEEE7A8F101005B
:1012C00003702188090501D5452100E06521A0F1C1
:1012D000010800F8011C09980FA9A1EB0807FF1DE0
:1012E00000B10120411901EBEA70A1693844081AE4
:1012F000401EA0612078C00602D42046FFF72EFBD6
:10130000099828B1D4E901219047206A401C206245
:101310002078C00622D52046FFF720FB1EE0002ED5
:1013200004DBB34502DD01A8805D00E03020D4E994
:1013300001219047206A401C2062761CAAF101001E
:101340005FEA000A0AD100F0A7FAC0680168405CB1
:10135000D4E901219047206A401C2062281EA5F193
:101360000105DCDC07E0D4E9012118F8010B904706
:10137000206A401C2062381EA7F10107F3DC2046DA
:10138000FFF702FB032011B041E600002DE9F04F0A
:1013900004460D46D21D22F0070089B0D0E900971F
:1013A0004846394607F03CFA0246F80F01D02D2393
:1013B00007E02068810701D52B2302E0202101EA04
:1013C000C0038DF820300BB1012000E00020032A7B
:1013D000824601D0072A04DB2946204600F074FA31
:1013E0003FE12078800601D40D2500E0E569C7F3D0
:1013F0000A560D2D49DA00214FEA175B08464FF0D7
:101400000000002F00F4400007DA00EB80004FF4EA
:10141000400100EBD07001EA60008115012901DD77
:101420004FF0FF3100224FEA850CBCF1180F06D3B4
:101430001346ACF118004FF08052C24003E04FF465
:10144000801323FA0CF30CF10C0CBCF1200F04D325
:10145000ACF1200C09FA0CF001E007FA0CF00029BD
:101460004FF0004801DD18B90FE00ED140450CD314
:1014700019EB02095F4121B9404502D19F4329EA96
:101480000209BBEB175F00D0761C2088000502D54F
:101490007B48784402E07A487844193808AA302317
:1014A00002F80A30037C0AF10101002E0AF1020A57
:1014B00053546A4602DC4FF0300101E04FF0310135
:1014C0004FF001088DF8001002D0A6F2FF3603E0BD
:1014D00059EA470100D06B4E002D02DC2178090744
:1014E00004D54FF002082E218DF80110C4460021CA
:1014F0000BE0C7F303433F01C35C491C6D1E02F8B8
:101500000830052908F1010801DA002DF1DC00217D
:101510000CE000EB1973491C1B786D1E082902F8BA
:1015200008304FEA091908F1010801DA002DF0DC52
:1015300021688B0602D516E0A8F10108E04505DD1B
:1015400002EB080313F8013C302BF5D0B8F1000F83
:1015500009DD02EB080313F8013C2E2B03D1090728
:1015600001D4A8F10108002D05DD3E2102F8081084
:101570006D1E08F10108407C002E02F8080008F1F9
:10158000010804DA2D20764202F8080002E02B2040
:1015900002F808000A214FF47A70864208F1010827
:1015A0000BDB96FBF0F3303302F8083096FBF0F3D8
:1015B00008F1010800FB136601E0642E0CDB6420D7
:1015C00096FBF0F3303302F8083096FBF0F308F1A5
:1015D000010800FB136601E00A2E06DB96FBF1F022
:1015E000303002F8080008F1010896FBF1F001FB29
:1015F0001060303002F80800A16908F1010808EB1A
:10160000050202EB0A00081AA0612078C00602D485
:101610002046FFF7A3F9216A08AE01EB0A00206219
:1016200004E0D4E9012116F8010B9047BAF1010A50
:10163000F7D22078C00602D52046FFF78FF96E4614
:1016400009E016F8010B3E280FD0D4E9012190479C
:10165000206A401C2062B8F10108F2D22046FFF750
:1016600093F909B00320BDE8F08F206A2844206276
:1016700003E0D4E90121302090476D1EEBD3F8E759
:101680002183000002FCFFFF10B5436913B1AFF3E3
:10169000008001E0FFF79BF9012010BD127800F1F6
:1016A00024010A7000224A700122EDE711684FF010
:1016B000FF32E9E710B5436913B1AFF3008001E0F1
:1016C000FFF73AFA012010BD128800F1240182844C
:1016D0000022C2840122EDE711684FF0FF32E9E7F2
:1016E0002DE9F04116460C46054600F0CDF803689A
:1016F00093F80101012807D0FF2C12D8185D80B1A2
:1017000001202C70BDE8F081D3F807013246214654
:1017100003F20713C7182846BC46BDE8F041002372
:1017200060474FF0FF30EDE710B500F08DF9BDE8F0
:10173000104000F084B910B500F09EF9BDE81040EB
:1017400000F07DB9032A40F2308010F0030C00F065
:10175000158011F8013BBCF1020F624498BF11F8EB
:1017600001CB00F8013B38BF11F8013BA2F10402A4
:1017700098BF00F801CB38BF00F8013B11F003031C
:101780003FF403AB083AC0F0088051F8043B083A34
:1017900051F804CBA0E80810F5E7121D5CBF51F822
:1017A000043B40F8043BAFF30080D20724BF11F89C
:1017B000013B11F801CB48BF11F8012B24BF00F801
:1017C000013B00F801CB48BF00F8012B70474FF0F8
:1017D00000020429C0F0128010F0030C3EF4D7AFD1
:1017E000CCF1040CBCF1020F18BF00F8012BA8BF0C
:1017F00020F8022BA1EB0C01FEF7C9BF5FEAC17C08
:1018000024BF00F8012B00F8012B48BF00F8012B82
:101810007047000086469EE8FF1FDEF834D0DEF8F1
:101820003CE0704790EC200B704700BF90EC200B21
:10183000704700BFD0EC200B704770477546FFF72C
:1018400033FBAE4605006946534620F00700854647
:1018500018B020B5FEF772FDBDE820404FF000063D
:101860004FF000074FF000084FF0000BAC46ACE81B
:10187000C009ACE8C009ACE8C009ACE8C00921F077
:1018800007018D467047000010B500F005F8001DF7
:1018900010BD00BFF96F000000487047D001002064
:1018A00070B5A0FB0140B4F1805170F1000024BF7D
:1018B000002070BD2046FEF753FD05001CBF2146E9
:1018C000FFF785FF284670BD2DE9F0411F4604460D
:1018D00003260168072A01F4006004DB08B116A59D
:1018E00005E016A503E008B115A500E015A521F057
:1018F00010002060A069C01EA0610FB1401EA06151
:101900002046FFF72BF84FB1D4E901213846904724
:10191000206A401C2062C01C206206E0206AFAE7B0
:10192000D4E9012115F8010B9047761EF8D2204624
:10193000FFF72AF8BDE8F0814E414E006E616E005F
:10194000494E4600696E66002DE9F047814616460D
:101950008AB0354878440DC88DE80D003248784487
:10196000801C03AC0DC884E80D0041F69B30084490
:10197000372190FBF1F290FBF1F5A5F1800501FB19
:1019800012041B3C02D56442012000E00020DFF875
:1019900098A080460027FA44AAF1BE0A0EE0E007AC
:1019A0000AD03246684607EB470101230AEB810162
:1019B00006F0FFFD8DE8070064107F1C002CEED1BF
:1019C000194F7F44AE3F19E0E80715D007EB04102C
:1019D0000DF1180A90E80E008AE80E00C068F04287
:1019E00001D1981908903246012306A903A806F0F0
:1019F000E0FD03AB83E807006D10641C002DE3D10C
:101A00004FF0010332466946B8F1000F03A802D037
:101A100006F0BAFD01E006F0CCFDC9E90001C9F805
:101A200008200AB0BDE8F087F07E000010B504463B
:101A3000AFF300802046BDE81040FEF76ABC0028E6
:101A400001D0FFF72BBA704710B5002102A000F0BB
:101A50003BF8012010BD0000534947414252543A1F
:101A60002041626E6F726D616C207465726D696E7B
:101A70006174696F6E00000010B5012805D0002167
:101A800003A000F021F8012010BD09A1F8E7000033
:101A900053494752544D454D3A204F7574206F6657
:101AA0002068656170206D656D6F727900000000BF
:101AB0003A2048656170206D656D6F727920636FA3
:101AC000727275707465640070B505460C460A2024
:101AD00000E06D1C00F011F835B128780028F8D12D
:101AE00002E0641C00F009F814B120780028F8D155
:101AF000BDE870400A20AFF3008008B569468DF854
:101B000000000320ABBE08BDFEE7000070470000E8
:101B1000FEE7000081B043F64001C4F202010A680A
:101B200002430A60096808400090009801B07047BD
:101B300081B043F64401C4F202010A6802430A601C
:101B4000096808400090009801B0704711F5803F87
:101B500018D146F20041C4F20201884266D046F232
:101B60000001C4F20201884240F0B48043F6100044
:101B7000C4F20200016841F400110160016821F41F
:101B800000115EE010B549F62C6246F2000EC0F678
:101B90000002C4F2020E545C7045235823F0010386
:101BA000235008BF00294FD00EF5806C604508BF58
:101BB00000294CD0704508BF01294BD0604508BFB3
:101BC00001294AD0704508BF022949D0604508BFA5
:101BD000022948D0704508BF032947D0604508BF97
:101BE000032946D0704508BF042945D0604508BF89
:101BF000042944D0704508BF052943D0604508BF7B
:101C0000052942D0704508BF062941D0604508BF6C
:101C1000062940D080EA0E0C81F0070353EA0C033A
:101C20000EF5976308BF0EF1B80336E043F61000D7
:101C3000C4F20200016841F480010160016821F4EE
:101C400080010160012070470EF1100325E00EF5C0
:101C5000826322E00EF128031FE00EF585631CE08D
:101C60000EF1400319E00EF5886316E00EF15803FB
:101C700013E00EF58B6310E00EF170030DE00EF52E
:101C80008E630AE00EF1880307E00EF5916304E02D
:101C90000EF1A00301E00EF59463002200291A6002
:101CA0005A609A60DA601A614FF021025A61025953
:101CB00022F060620251BDE810400DD001390629C2
:101CC00008D8DFE801F0040D101315181B004FF4BD
:101CD000746102E0002070473F218160012070475D
:101CE0004FF47C11F9E74FF07461F6E73F2107E00C
:101CF0004FF4746104E04FF47C1101E04FF0746123
:101D0000C1600120704700002DE9F04349F62C63C3
:101D100048F21F04D2F828C0D2E902E8D2E90495BB
:101D2000D2E90667C0F60003CFF6FC74595C0B5885
:101D3000234048EA0E0444EA090425432E4337436E
:101D400047EA0C073B430B500844D16A91B1136B2F
:101D50001943436923F0070319434161516B036839
:101D600023F0C07319430160916B036823F4C0032F
:101D70001943016051684FF6FF77C16011688160B7
:101D8000116A4368BB4319434160516A026822F0FB
:101D90006062114301600120BDE8F08380B53C2101
:101DA000FEF7F3FC80BD00002DE9F0410A6892FACD
:101DB000A2F20C68B2FA82F234FA02F37BD04FF04E
:101DC000010C4FF003084FF00F0E00BF0CFA02F5A4
:101DD0002C406BD04D68066894FAA4F794FAA4F3EB
:101DE000B3FA83F35B0005FA03F3B7FA87F56D00E6
:101DF00008FA05F526EA05052B4303604B68013B0D
:101E0000012B11D88B68856894FAA4F694FAA4F78C
:101E1000B6FA86F6B7FA87F776007F0008FA06F674
:101E2000BB40B5432B4383600B69C56894FAA4F6A5
:101E300094FAA4F7B6FA86F6B7FA87F776007F0029
:101E400008FA06F6BB40B5432B43C3604B68022B30
:101E50002CD194FAA4F34D69B3FA83F3072B12D86B
:101E6000036A94FAA4F694FAA4F4B4FA84F4A400ED
:101E700005FA04F4B6FA86F5AD000EFA05F5AB43A3
:101E80002343036212E0240A436A94FAA4F694FA04
:101E9000A4F4B4FA84F4A40005FA04F4B6FA86F5BE
:101EA000AD000EFA05F5AB43234343620C680132E3
:101EB00034FA02F38AD14A68013A012A05D8C9687E
:101EC00042686143A243114341600120BDE8F081B3
:101ED00044F6D351C1F26201A0FB01014FF0FF3083
:101EE00000EB91104EF21001CEF20001486000208C
:101EF000886005200860704740F27011C2F200014E
:101F00000860704741F6FF3201460020C4F200022B
:101F1000914225DC40F6FF32C4F20002914245DDD9
:101F200041F2FF32C4F2000291427BDC40F60042F3
:101F3000C4F20002914200F0A68041F20002C4F215
:101F40000002914240F0E88043F62000C4F2020013
:101F5000016841F010010160016821F01001E7E023
:101F600040F2FF32C4F2010291423DDD44F2FF3201
:101F7000C4F2010291426DDC40F20042C4F201025F
:101F8000914200F08C8044F20002C4F201029142BE
:101F900040F0C28043F62000C4F20200416841F4E0
:101FA00080314160416821F48031CFE0B1F1804F50
:101FB00000F0818040F20042C4F20002914200F041
:101FC000868040F60002C4F20002914240F0A480F4
:101FD00043F62000C4F20200016841F004010160F0
:101FE000016821F00401A3E041F60042C4F20002BE
:101FF000914278D042F20002C4F2000291427ED0B7
:102000000022C4F20102914240F0868043F6200093
:10201000C4F20200416841F001014160416821F0D1
:10202000010193E041F20042C4F20002914274D0F7
:1020300041F60002C4F2000291426DD143F6200045
:10204000C4F20200016841F040010160016821F022
:1020500040016DE044F20042C4F2010291426AD0B4
:1020600044F60002C4F20102914218BF704743F6E1
:102070002000C4F20200416841F4802141604168BF
:1020800021F4802162E043F62000C4F202000168DE
:1020900041F008010160016821F0080148E043F6C1
:1020A0002000C4F20200416841F002014160416831
:1020B00021F002014AE043F62000C4F20200016868
:1020C00041F001010160016821F0010130E043F6B7
:1020D0002000C4F20200016841F0020101600168C1
:1020E00021F0020124E043F62000C4F2020001685E
:1020F00041F080010160016821F0800118E043F6A1
:102100002000C4F20200016841F48071016001689E
:1021100021F4807101600120704743F62000C4F271
:102120000200016841F020010160016821F02001F6
:1021300001600120704743F62000C4F202004168AC
:1021400041F400314160416821F4003141600120D7
:102150007047000040F6FF3C0268C4F2000C604586
:102160000FDCB0F1804F1DD040F20043C4F20003F9
:10217000984217D040F60003C4F20003984211D0F1
:1021800014E040F60043C4F2000398420AD040F243
:102190000043C4F20103984204D00023C4F20103B7
:1021A000984203D14B6822F070021A4341F6FF7344
:1021B000C4F2000398420DDC60451FDCB0F1804F93
:1021C00041D040F20043C4F2000398423BD040F6B5
:1021D000000321E043F6FF73C4F20103984220DCC0
:1021E00042F20003C4F2000398422CD00023C4F250
:1021F0000103984227D040F2004320E040F600431C
:10220000C4F2000398421ED041F60003C4F200035A
:10221000984218D041F60043C4F20003984212D00D
:1022200015E044F20003C4F2010398420BD044F6D7
:102230000003C4F20103984205D044F20043C4F203
:102240000103984203D1CB6822F440721A43026022
:1022500040F200438A68C4F20103C2620A888262C3
:1022600040F480629A4204BF097C0163416941F0F5
:102270000101416101207047F0B50023FF2940DCD6
:10228000012970D0102940F0E680016A21F0100188
:102290000162036A41688769D2E90065146927F41D
:1022A000E64723F0300347EA062C6FF01F0740F2A1
:1022B000004607EA0417C4F201063B4340F4806776
:1022C00043EA0513B74216D19768D2E905656FF066
:1022D0007F0423F0C003D2F81CE021F4406104EA3B
:1022E00086142343AC0040F60305AC4343EA87134E
:1022F000214341EACE014160C0F818C0D168816332
:102300002FE0B1F5807F69D0B1F5805F40F0A38008
:10231000016A21F480510162036A4168C769D2E908
:102320000065146927F4E64723F4405347EA062C76
:10233000270341F6FF76B74340F200463B4340F4A3
:102340008067C4F20106B74243EA053302BF9769CA
:1023500021F4804141EA87114160C0F81CC0D16876
:102360000164036237E0016A21F001010162046A3D
:10237000D0F804E08369D2E90015166923F07303ED
:1023800043EA010C24F0030140F2004426F001036B
:10239000194340F48063C4F201042943A34213D1DA
:1023A0009768D2E905562EF44073D46921F00C01E8
:1023B00026F40076334343EA440E6FF0070303EA42
:1023C0008503194341EA8701C0F804E0C0F818C04A
:1023D000D2684263016201231846F0BD016A21F40C
:1023E00080710162036A4168C769D2E900651469B6
:1023F00027F0730723F4407347EA060C270240F2E4
:10240000FF16B74340F200463B4340F48067C4F2F6
:10241000010643EA0523B74216D1D2F808E0D2E913
:10242000056542F20F07D46921F4405123F440635B
:102430002D01BD43294340F2FF7541EA4411B40226
:10244000AC43234343EA8E234160C0F81CC0D168EB
:10245000C163036201231846F0BD000000214FF064
:10246000FF320180C0E90112C160017470470000B1
:10247000FEE7000070470000704700007047000052
:102480007047000043F60400C4F20200416801F006
:102490000C0242F20041C0F2F401082A06D0042ADC
:1024A0001ED141F20021C0F27A0119E0026841F226
:1024B0000023C0F27A0312F4800F08BF0B460168B4
:1024C000026801F03F01C2F38812B3FBF1F102236D
:1024D00051430268C2F3014203EB4202B1FBF2F145
:1024E00040F2701249F66003C2F20002C0F6000327
:1024F00011604068C0F30310185C21FA00F010600E
:10250000704700004EF688504FF0000CCEF20000ED
:10251000016841F47001016043F60001C4F2020158
:102520000A6842F001020A60C1F808C04FF6FF7263
:102530000B68CFF6F6621A400A6043F21002C2F24C
:1025400000424A600A6822F480220A60C1F80CC086
:102550004FF0006140F8801C7047000040F61040CA
:10256000C4F20000016811F0010F08BF70476FF05E
:102570000101016040F21020C2F2000000F034BE00
:10258000FEE7000040F21020C2F2000000F082BE20
:102590007047826801460AB101201047704780B534
:1025A0008AB0694605F0E2FC0299002818BF0021B4
:1025B00008460AB080BD80B58AB0694605F0D6FCF1
:1025C0000099002818BF002108460AB080BD70B5E8
:1025D000ADF5407D62AD04462846FEF747FC00207D
:1025E0006E462946E060304605F0E5FCB6A9304667
:1025F00005F0BCFCB0B96D46B6AEB99B63B1B698F8
:10260000BE99BB9A04F1480C8CE8070000202146D3
:102610002A469847082809D12846314605F0A6FCE5
:102620000028EAD003200DF5407D70BD062803D0B8
:10263000092818BF0320F6E762A86946224600234E
:1026400000F02AFA0220EEE7B0B5ADF5367D62ADB6
:1026500004462846FEF70AFC69462846224601231E
:1026600000F01AFAFEF786FB70B5049C1546064684
:1026700001290AD011BB02200F2D1DD8E3B9304625
:102680002946224605F081FC13E0052B07D0012BDB
:1026900007D10F2D05D8304605F0B9FC03E01F2DFA
:1026A00001D9022008E005F580713046224605F088
:1026B00046FC002818BF0220C0B270BDFEF75AFBCE
:1026C0002DE9F04F81B01D461746894604469A42CF
:1026D00080F0FB800026E84637E00AF00700012181
:1026E0000123E6E0AB4580F0FC80B24602370020D3
:1026F0000026791E81F0030119F8011001F07F0214
:1027000011F0800F02FA00F246EA02060CD0791CA2
:10271000AF4200F107000F46EBD3E2E02046012173
:1027200000F0E4F80237CBE020460D21424605F0E8
:102730002CFC00980D2100EB860000F5017220466C
:10274000009205F082FC5646BAE087F0030007F1DC
:10275000010B19F800A01AF0800F0DD120460D21B1
:10276000424605F012FC4FEA8A001AF0400F29D1C8
:1027700000990844021D2CE00AF0F000803800099E
:10278000052800F2AE80DFE800F0032A3947718D9A
:10279000AB4580F0A6808BF003004FEA0A3119F8B0
:1027A000000089B241EA0012002A00F09A80204617
:1027B0000021002300F09AF80AF00800023746EAE8
:1027C000D0067DE000F0FC006FF00301081A0099CC
:1027D0004218009220460D2105F037FC6FE04AF0C8
:1027E000020000F00F000F2800F07B800AF00F01BC
:1027F0002046424605F0C9FB009AEBE70AF00700C5
:102800002021002301FA00F00AF00801103840EA04
:10281000C1222046002150E0AAF1B00107293FF66D
:102820005CAF0920DFE801F04F1211045E5E5E5ECE
:102830008BF00300012319F8000000F0F00100F014
:102840000F00013040EA013268E74BE7AB4548D260
:102850008BF0030019F800200920002A42D012F062
:10286000F0013FD120460021002359E70AF0FE0085
:10287000C82836D18BF00300AAF1C80219F800105D
:10288000B2FA82F25209080901F00F0140EA02107F
:1028900042181F2A25D80131C0B20523C9B241EA26
:1028A00000423BE75FEA0A701BD40AF007000121EF
:1028B0000523013040F40022204600F017F85F465F
:1028C000AF42FFF442AFF00709D16A4620460E211D
:1028D00005F05BFB009A20460F2105F0B6FB0820AF
:1028E00000E00920C0B201B0BDE8F08F2DE9F0434F
:1028F00085B01E461546044601292DD0002966D113
:10290000A6BB02AA20460D2105F03FFB70BB0027A5
:102910004FF001080DF11009002608FA06F02842D0
:1029200013D0029832460023011D02910021006855
:10293000CDF800900490204600F04BF8B0B9A6F115
:102940000D00B0FA80F0400907430136102EE4D3A1
:10295000F80733D000200AE046F00400052805D12E
:1029600004AA20460D2105F010FB20B10220C0B2C0
:1029700005B0BDE8F083A8B2C8B100EB15472D0C37
:102980000DF108080498334600F10802016804922A
:102990002A464068CDE9021020460121CDF800808A
:1029A00000F017F80028E1D10135BD42EAD3012E2D
:1029B00011BF049A0498021D049200E0029A204676
:1029C0000D2105F042FB002818BF0220CFE7FEF7DB
:1029D000D1F970B5049E1446054601290AD019BBE9
:1029E00002200F2C1ED8EBB932682846214605F08C
:1029F0002CFB14E0052B07D0012B07D10F2C05D899
:102A0000284605F004FB03E01F2C01D9022009E051
:102A1000D6E9002304F58071284605F0FBFA00286A
:102A200018BF0220C0B270BDFEF7A4F910B540F681
:102A3000004407200121C4F20204224604F044FAB3
:102A400006200221224604F03FFA052004212246F6
:102A500004F03AFA04200821224604F035FA022054
:102A60004021224604F024FAA4F5006400208021CD
:102A7000224604F01DFA01204FF48071224604F032
:102A800017FA042004F00CFA012004F027FA0120C0
:102A9000BDE8104004F02ABA2DE9F0478CB00C468E
:102AA00001469A461546204605F085FA01260DF1A5
:102AB0002C080DF1040904E0286A0B9981422FD0FB
:102AC000013E1AF001004FF0010718BF022708D09D
:102AD0003EB92A6920464FF0FF3105F0B6FA4FF0B3
:102AE000000A20466FF00101424605F04EFA2046EA
:102AF000494605F03BFA00BB049B002BE0D001984F
:102B00000999069A05F1480C8CE8070038462946D1
:102B100022469847072805D00828CDD009280CD18F
:102B2000FEF728F96A4620464FF0FF3105F02DFAEE
:102B300000982861204605F061FA0CB0BDE8F087E6
:102B400002F059BF80B5AFF30080BDE8804003F0CC
:102B50005EB840F20C31C2F2000101F50072904201
:102B600028BFFDF72CBC884201D300F0AFBBFDF7B6
:102B700026BC80B5AFF30080BDE8804003F047B8C5
:102B800070B50D460646FEF78BFE044658B97543F0
:102B9000284600F005FC044620B120462946FEF7F1
:102BA00016FE00E00024204670BD80B5AFF3008023
:102BB000BDE8804003F02BB840F20C31C2F20001B6
:102BC00001F50072904228BFFDF7F9BB884201D39E
:102BD00000F07CBBFDF7F3BB10B582B004460028C3
:102BE00001A84FF0100108BF01242246FDF75CFE4A
:102BF00018B1204600F0D4FB00E0019802B010BDEF
:102C00002DE9F04F8FB08B4618211C4690460646A2
:102C1000FDF7BBFD03201BF00109307603D01BF04C
:102C20000E0F03D10DE05FEA8B7004D403203076E1
:102C30000FB0BDE8F08F0BF00C000C2801D1022082
:102C4000F5E7DDF860A05046FFF7A9FC074600282D
:102C50000D9039D00020F76000210F22002304944A
:102C60000E900EA800905046FFF7FEFC0E9C5046BA
:102C7000FFF7A1FC8246781C0D900DA8397800F072
:102C8000D1F90D9A002824F00101A1F1010102F10E
:102C900001050D9508BF50461278CDF818B009907F
:102CA000FF2A13D00022002315F8017B07F07F04D0
:102CB00017F0800F04FA02F402F1070243EA04035A
:102CC000F2D1EC180D9502E00820B0E70024A1EB4A
:102CD0000A0A691C00220020CDF81C9005960D916F
:102CE0002D7811F8013B03F07F0713F0800F07FAEE
:102CF00002F702F1070240EA0700F2D10128CDE90C
:102D00000A48CDE90D112BDB01EB000B0EAF384665
:102D1000294600F087F980463846294600F082F9B6
:102D200081463846294600F07DF90E9A002300219D
:102D300012F8014B04F07F0614F0800F06FA03F638
:102D400003F1070341EA0601F2D1D0450E9203D800
:102D500009EB08039A4507D3C24501D35A45D6D398
:102D60000B98049900F051F90A9A002800F0D180DC
:102D7000099B0029034400F0C0800393069B0BEBE2
:102D800001000799049C4FF0FF38A0F1010A03F0FD
:102D9000040003F008090843B0FA80F040090990E4
:102DA00004F15800089003F00600069001E006EBDD
:102DB000030A00200021564616F8017B07F07F0326
:102DC00017F0800F03FA00F300F1070041EA030156
:102DD000F2D108FA00F37F060D4648BF1D432028B4
:102DE00028BF0D46012D2DDB002A00F0CC80A2EB80
:102DF0008500006868B30B99002961D044F64763E9
:102E0000D4E90012C4F24C335A4042F60133C4F202
:102E10002B3359401143089908BF54F8281C002946
:102E20000C9100F0B48054F8241C002900F0AF800D
:102E3000026813690CAA98470A9A002840D007989C
:102E4000A8B388E0B5F1FF3F0ADD0698022837D124
:102E500063E00998002860D0B9F1000F30D192E00A
:102E60000B9840B344F64763D4E90001089FC4F2CD
:102E70004C33594042F60133C4F22B3358400843D7
:102E800008BF54F8287C002F00F0818054F8243CBF
:102E9000002B7CD04FEAE57B2846CDE900745946EB
:102EA00000F06CF90A9A58B10798002860D1B9F17E
:102EB000000F05D16BE0099878B3B9F1000F6AD023
:102EC000002500210020735D013503F07F0713F01A
:102ED000800F07FA01F701F1070140EA0700F2D17C
:102EE0005B0608FA01F7034648BF3B43202928BF89
:102EF0000346002B7FF45BAF0BE0069800F0060062
:102F0000022806D105990020C1E9000006200B61C6
:102F100001E00599082008768AE6059A039844F6A8
:102F20004763C4F24C331061E81715605060C2F873
:102F300008A0D4E90001594042F60133C4F22B3312
:102F40005840084304BF54F8280C08900620107617
:102F5000089850616CE6059AE8170621C2E900500E
:102F6000C2F808A00C9811760399C2E904105FE634
:102F700005990398C1E9040706200876C1E9005BBA
:102F8000C1F808A054E60B98214600F03EF8012055
:102F9000214600F03AF80020214600F036F810B53E
:102FA0000446283002F0F1FE206902F037FDF0B54A
:102FB00083B01546029002AE0C460846002100225E
:102FC000002300270096FFF704FD28680021012256
:102FD0000023009602902046FFF7FBFC2D69204657
:102FE00000210F22002302970096FFF73DFB029875
:102FF00000210F220023009600F0010028430290D8
:103000002046FFF7E6FC03B0F0BDB0B50546084624
:103010000C4602F0BAFE1DB154F8180C02F0FEFC8A
:1030200002F0C2FD70B5FF291ED001F00F020C2A7C
:1030300000F29780D0F800C0DFE802F0622A3C0777
:10304000199393939345730719009CF800209CF8FB
:1030500001309CF802609CF8035046EA052642EADB
:10306000032242EA064E59E04FF0000E77E09CF84A
:1030700000209CF801309CF802609CF8035046EA5E
:10308000052642EA032242EA064E0CF1080650E009
:1030900000224FF0000E664616F8013B03F07F0455
:1030A00013F0800F04FA02F402F107024EEA040E54
:1030B000F2D13EE09CF800209CF801300CF10206B1
:1030C00042EA032E35E000220024664616F8013B52
:1030D00003F07F0513F0800F05FA02F502F10702F5
:1030E00044EA0504F2D14FF0FF355B06A64605FA27
:1030F00002F548BF4EEA050E202A28BFA64618E072
:103100009CF800209CF801309CF802509CF8034089
:1031100045EA042542EA032242EA054E0CF1040680
:1031200007E09CF901209CF800300CF1020643EA0C
:10313000022EC1F302122AB1012A12D1BEF1000FF0
:103140000AD0E64449B2B1F1FF3F07DCBEF1000FFF
:1031500018BFDEF800E001E04FF0000E0660704698
:1031600070BDFDF707FE012803D101F1580002F000
:1031700041BF80B551F8180C02F050FCF0B581B099
:103180001C46CAB16FF0030181EA8001885870B112
:103190001144069E6D460F1D00962A4601680B6974
:1031A0002146984728B957F8040B0028F4D101208C
:1031B00000E0002001B0F0BD07990020FFF725FFD7
:1031C00010B5012809D1A1F12804206802F012FFEE
:1031D0002046BDE81040FFF7EFBC51F8180C02F094
:1031E0001DFC0000002070472DE9F04104460068F6
:1031F000002808BFBDE8F08104F108050026022779
:103200004FF0010855F8260001680968884705282D
:1032100013D0A179012910D0A771617904EBC10203
:10322000D06255F826009062481C00F007006071DB
:103230002179884208BF84F80680206801368642DA
:10324000E0D3BDE8F08100008079002818BF01209C
:10325000704700000268531C036000EB820081602D
:10326000704700008A7982B10A7901EBC203D3E981
:103270000AC3C0E900C3501C00F0070008714A7976
:10328000904204BF00208871704705210022C0E9E8
:1032900000217047B0B50025044624218571858042
:1032A00005600830FDF771FA0520C4E90B05C4E993
:1032B0000D05C4E90F05C4E91105C4E91305C4E906
:1032C0001505C4E9170560662046B0BD2DE9F04339
:1032D00040F20C5C011FC2F2000CDCF80090B9F166
:1032E000000F1ED040F20C3EC2F2000E0EF500722E
:1032F000914516D030F8028C00254FF400764F46E9
:1033000001EB88027C8807EB84038B4215D0BA421C
:1033100018D03B883D460EEB8304B6EB830F27465F
:10332000F0D140F20C30C2F20000A9EB000080089E
:103330000880CCF80010BDE8F08308EB040078802A
:10334000BDE8F08308EB0403002D20F8023C05D013
:10335000A1EB0E0080082880BDE8F083CCF80010B7
:1033600010880880BDE8F083B0B58AB00C460546E9
:103370006946204604F0FAFD95F85000C00705D1D3
:103380000298006810B109200AB0B0BD204604F0D0
:103390007CFE0921012808BF082108460AB0B0BDFB
:1033A00040F20C5C0146C2F2000CDCF8003043B97C
:1033B00040F20C338020C2F200031880CCF80030B9
:1033C000588010B50020E3B140F20C3EC2F2000E6E
:1033D0000EF50072934208BF10BDC81C01210022E7
:1033E0004FF4007401EB900118465B88994209D3B1
:1033F00013D002880EEB8203B4EB820F0246F3D1A6
:10340000002010BD5A1A0023428092B220F82230C8
:1034100000EB82004180043010BD0188002A12BFF9
:1034200011800EEB8101CCF80010002120F8041B64
:1034300010BD0000D0E901100160704770B586B082
:10344000C0E9001206460372084614460D4603F012
:10345000C1F80C98694603900A98CDE900400B9892
:1034600004900D9802902846FEF79EFC304606B068
:1034700070BD0000496840684968016070470000FD
:1034800010B5044690F8560000B110BD0868052834
:10349000FBD8DFE800F0031E313F4E5EA06D013027
:1034A000F3D10021A16594F82C0094F82D20C2429C
:1034B00008BFA165002894F8531008BF013184F8B3
:1034C0005C10C8B2012103F0DFFABDE8104003F040
:1034D000D7BA4FF0FF30A06503F0CEFAA06D0130EF
:1034E00018BF10BDA06A0028CFD0016801220B6868
:1034F0002146BDE810401847A26D501CC5D0511E92
:10350000A16594F82C0094F82D3003449A4232DDE2
:10351000002132E0A06D0130B7D0A06594F82C10E6
:1035200094F82D200A44904237DA431C37D1501EBC
:1035300034E0204600F0F4F8A06D0130A5D1A06A77
:103540000028A2D0016803220B682146BDE8104084
:103550001847204600F018FAA06D01307FF495AFAF
:10356000A06A00283FF491AF016802220B6821464F
:10357000BDE8104018470AB9591EA16594F85320B8
:1035800081420A444FF00101A8BF013284F85C2057
:10359000D0B2BDE8104003F077BA0020A06594F8DF
:1035A000532088424FF001010244A8BF013284F841
:1035B0005C20D0B2BDE8104003F066BA70B584B0AC
:1035C000044600200121002503F05EFA04F14200C8
:1035D00003F056FCA068D8B141F25971032542F2BC
:1035E0001072CDF2B71100BF0A280ED364280ED393
:1035F000B0F57A7F0CD3A0FB0136043590424FEA38
:1036000056331846F0D2033D02E0023D00E0013D92
:1036100094F82C00E9B2884209D92E46302003F0F4
:103620002BFC013694F82C00F1B28142F6D3280627
:1036300006D049F66260A168C0F6000003F0F8FB0E
:1036400094F82D0058B32E2003F016FC48F2A06128
:10365000D4E90220C0F201014A43C2420ED194F8DB
:103660002D00E0B1002500BF302003F005FC01353E
:1036700094F82D00E9B28142F6D310E0421849F6E1
:1036800062616D46C0F600012846FCF749FF94F8D8
:103690002D00002128444170681C03F0F1FB04F167
:1036A0004A0003F0EDFB94F85C00012103F0ECF913
:1036B00004B070BD0968024605290DD8012000FA42
:1036C00001F313F0330F18BF7047022906D1906D34
:1036D00001301CBF0120704700207047906D013001
:1036E0001CBF0120704700207047000010B5044641
:1036F00003F07AF994F852000021C0F1100000EBB9
:10370000D070C0F3470003F0BFF904F12E0003F0BE
:10371000B7FB2046BDE81040FFF750BF0000000097
:103720002DE9F04F87B08046806D48F2A06947F6DA
:103730006017C0F20109CFF6FE77411C1FD098F840
:103740002C10C0F10300014401293FDB0A200022B4
:1037500042F2107342F00107FFB2B94239DD42F084
:103760000207FFB2B94238DD42F00307FFB2B942A7
:1037700035DD04325843D7B2B942EBDC32E045467E
:1037800055F8080F6968EE68D5E9062300FB0910B3
:1037900002FB093100220023441A62F1000148F2C1
:1037A000A0622046C0F20102FCF730FE2A4600FB70
:1037B000074152F8087F00FB091307FB0967BB426A
:1037C00038BFD2E90001C5E90001CDE09FED6A0BE9
:1037D0000CE000EB8000400004E0642101E04FF4C5
:1037E0007A71484305F0DDFA41EC100B9FED641B44
:1037F00051EC100B5AEC114B2246534605F010F9D0
:1038000006460F4605F0A0FA0546069030463946B2
:103810002246534605F050FBC246834605FB09F09D
:103820000591CDF810805AF8084F0190DAF804702D
:1038300005F0B7FACDE902740B4600260246584659
:103840000599E4FB097605F035FCA7FB097206FB38
:10385000092805F079FA05460646069800244146EF
:10386000E0FB0964384632462346FCF7CFFD4A4662
:103870000023FCF7CBFD4CF6CD41CCF6CC41A0FBB0
:103880000112D10801EB8101A0EB4100C8B1DDE9D3
:10389000021048F2A0620023C0F2010200FB0910EE
:1038A00001992944441A4FF0000060F100012046BC
:1038B000FCF7ACFD47F66011CFF6FE7100FB01414D
:1038C00031E04BF6A03048F2A0620023C0F20D00B8
:1038D000C0F20102A6FB005104FB00142846214659
:1038E000FCF794FD4EF2004206462846214602238C
:1038F000C5F20B42FCF78AFD47F66011029ACFF63B
:10390000FE710B4600FB01611144039A104445F619
:10391000C52200FB0911C0F67C224809A0FB020267
:10392000D00900FB0311CAF80000CAF8041000FB1C
:103930000910DDF81080414651F8182F4B6802FB42
:103940000932904204D9D1E90001CAE900010BE033
:10395000414651F8102F4B6802FB093290423CBFA0
:10396000D1E90001CAE90001404607B0BDE8F04FC7
:10397000FFF724BE00BF00BF00000000000024408D
:1039800000000000006AF8402DE9F04F83B0834644
:10399000806D48F2A068C0F20108411C1FD09BF85E
:1039A0002C10C0F10300014401292FDB0A20002262
:1039B00042F2107342F00107FFB2B9423ADD42F021
:1039C0000207FFB2B94239DD42F00307FFB2B94244
:1039D00036DD04325843D7B2B942EBDC33E0584607
:1039E00050F8082F4368D0E905760146C56951F8BB
:1039F000104F32442B4404FB087702FB0832BA42D2
:103A000007D9D1E90021C0E90021DAE09FED700B70
:103A10001DE045F6C5235109C0F67C23A1FB031325
:103A2000D90947F66013CFF6FE7301FB0322C0E904
:103A30000012C6E000EB8000400004E0642101E0D9
:103A40004FF47A71484305F0ACF941EC100B9FED4F
:103A5000621B51EC100B55EC114B22462B4604F027
:103A6000DFFF07460E4605F06FF9824638463146BD
:103A700022462B4605F020FAD946CDF804B004467C
:103A80000AFB08F00D4659F808BFD9F8046005F0A4
:103A900088F902460B460027204629460096CDF8B5
:103AA00008B0EBFB086705F005FBA6FB086207FB07
:103AB000082505F049F90027044683463046294683
:103AC000EAFB084722463B46FCF7A0FC424600239F
:103AD000FCF79CFC4CF6CD41CCF6CC41A0FB01128E
:103AE000D10801EB8101A0EB4100092834D14BF64C
:103AF000A03048F2A0660023C0F20D00C0F201061B
:103B0000A4FB0041324607FB001520462946FCF77E
:103B10007DFC4EF200420746204629460223C5F2AC
:103B20000B42FCF773FC47F66015009A0023CFF6B2
:103B3000FE7500FB057100FB0810029901FB0821CE
:103B400032460C1A4FF0000060F100012046FCF7ED
:103B50005DFC00FB054113E00098029945F6C52283
:103B6000C0F67C225844514401FB08014809A0FBDF
:103B70000202D00947F66012CFF6FE7200FB021176
:103B8000C9F80000C9F8041000FB0810DDF804B003
:103B9000594651F8182F4B6802FB0832904204D95D
:103BA000D1E90001C9E900010BE0594651F8102F95
:103BB0004B6802FB083290423CBFD1E90001C9E9E1
:103BC0000001584603B0BDE8F04FFFF7F7BC00BF57
:103BD000000000000000244000000000006AF840DF
:103BE0002DE9F04381B0044649F6BC404FF000088F
:103BF0000D4624211E461746C0F600000830C4E9D1
:103C0000000804F10800FCF7C0FD40F2024084F80F
:103C100056800C9AA0854FF0FF30A06584F85C8038
:103C2000D5E90001C4E90401D7E90001C4E90601AE
:103C3000D6E90001C4E90801D5E90001A262C4E99E
:103C40000201DDE9080158B3077804F12E022FB311
:103C5000002300BF177043F00102D7B254FA82F27A
:103C6000C75D2E32D7B1177043F00202D7B254FAB3
:103C700082F2C75D2E328FB1177043F00302D7B2C4
:103C800054FA82F2C75D2E3247B104331770DAB2AC
:103C9000875C54FA83F22E32002FDBD100201070A3
:103CA0000A9859B30F7804F142022FB3002300BFE2
:103CB000177043F00102D7B254FA82F2CF5D42325C
:103CC000D7B1177043F00202D7B254FA82F2CF5D37
:103CD00042328FB1177043F00302D7B254FA82F226
:103CE000CF5D423247B104331770DAB28F5C54FAB9
:103CF00083F24232002FDBD1002111700B9E04F1C0
:103D00004A0558B303782A4633B300212A4600BF38
:103D1000137041F00102D3B254FA82F2C35C4A320A
:103D2000D3B1137041F00202D3B254FA82F2C35CF1
:103D30004A328BB1137041F00302D3B254FA82F2CB
:103D4000C35C4A3243B104311370CAB2835C54FA83
:103D500081F24A32002BDBD10020107004F12E00DA
:103D6000FCF7F4FC84F8520004F14200FCF7EEFC8E
:103D700084F853002846FCF7E9FC84F8540084F8E2
:103D80005660A169B9B141F25972032042F2107331
:103D9000CDF2B7120A2910D3642910D3B1F57A7F76
:103DA0000ED3A1FB0276043099424FEA56373946CA
:103DB000F0D2033804E0002002E0023800E00138CD
:103DC00084F82C0045F6C529626AC0F67C295109A1
:103DD000A1FB0917F90940F635477943A2EB4111D8
:103DE000A1B303214FF064084FF47A7E42F2107CB5
:103DF00002EB8205C5F31A166D00A6FB0963DB0909
:103E00007B43A5EB43131BB302FB08F35D09A5FB42
:103E10000956F5097D43A3EB4513DBB102FB0EF315
:103E20005D09A5FB0956F5097D43A3EB451393B145
:103E300002FB0CF204315309A3FB0935EB097B4368
:103E4000A2EB4313002BD3D1033904E0002102E09D
:103E5000023900E001394FF0FF3284F82D1011F0E3
:103E6000FF0FA26500EB010218BF501C84F855003B
:103E7000204601B0BDE8F0830246086878B1052805
:103E80001AD0042828D192F87400002808BF106FB7
:103E9000013882F87400106801681046084792F8EB
:103EA000740002EB8000006E002808BF70470168B4
:103EB0000B6811460422184792F87430116FD2F83B
:103EC00000C00133D8B28142104698BF002382F867
:103ED0007430DCF8001008477047000008680528B7
:103EE0008FBF002000F03F00312121FA00F098BF81
:103EF00000F001007047000010B5044602F074FDA8
:103F0000207E0021C0F1100000EBD070C0F347000C
:103F100002F0BAFD04F1080002F0B2FF94F8740058
:103F20000121204490F85900C0F10E0000EBD07040
:103F3000C0F3470002F0A8FD3C2002F09DFF94F87A
:103F4000740004EB0010193002F09AFF3E20BDE827
:103F5000104002F091BF0000B0B5044649F6D040D1
:103F60000025C0F600000830C4E9000504F108008F
:103F700003F0B8FF20762046256784F87450B0BD62
:103F8000B0B582B01546044669B149F6780349F6E2
:103F900098020846C0F60003C0F600021946002346
:103FA00002F04FF900E00020691E022905D8D0E98F
:103FB00002236168684600F0DBF802B0B0BD000083
:103FC000B0B50446006A0D4604EB800080680168C5
:103FD0008A682946904748B1206A04EB80008068CF
:103FE00001684A682946BDE8B040104728680328A0
:103FF0000AD0022818BFB0BD206A002808BF606A36
:1040000001382062206807E02068D4E908120131F5
:10401000914228BF0021216201682046BDE8B040DE
:1040200008470000016A00EB8100806801680968A8
:1040300008470000D0E901120969037B01EA020C7C
:10404000B3FA83F1013B4909B3FA83F3944508BFFE
:1040500059090269022A0BD0012A11D032B929B1BB
:1040600082690121C0E904120020704705207047D1
:1040700081B1416941B1C269891A41610520704726
:1040800041B141690029F6D182690221C0E90412D7
:10409000012070470021C0E9041102207047000090
:1040A00010B549F6045E4FF0000CC0F6000E0EF19C
:1040B000080EC0E900ECC0F808C091F808E0D1E9AA
:1040C0000041C0E904CCC0E9063280F80CE0C0E948
:1040D000014110BD017F0C2202EA81010177D0E984
:1040E0000123126990F80CC01A409A4203D1BCF126
:1040F000010F03D105E0BCF1000F02D041F0020135
:104100000177D0E90423126990F818C01A409A4246
:1041100007D1BCF1010F07D10E2904BF032070475E
:1041200005E0BCF1000FF7D041F001010177052057
:104130000D2908BF0420704749F610534FF0000CBA
:10414000C0F60003C0E904CC0833C0E9003CC0F865
:1041500008C00B7A03734B68836009684160D2E939
:104160000013127A80F81CC00276C0E9041370476D
:104170002DE9F04F85B048F2A0680D46049000206C
:10418000C9884FF0000BC0F20108E2FB0830A3FB26
:10419000012300FB0130A2FB08414246002300FB43
:1041A000081720463946FCF731F94EF200428246A4
:1041B000204639460223C5F20B42FCF727F947F6A1
:1041C0006012CFF6FE7200FB02A192460022E0FBD5
:1041D0000812A1FB080102FB0811D5E90572EB6981
:1041E00003932B6A02930023E7FB0823FCF70EF9E5
:1041F000424600230446FCF709F91FFA80F90746F6
:104200004246002309FB08F0241A6BF10001204606
:10421000FCF7FCF800FB0A410022B5F800B00223CD
:10422000E0FB0812ABFB01010BFB0211A0FB080233
:1042300001FB08214EF20042C5F20B42FCF7E6F802
:104240000446D5E9090100264246E0FB0816A0B263
:10425000A1FB001306FB0030A1FB0861002300FB5B
:10426000081A30465146FCF7D1F8804630464EF2E7
:10427000004651460223C5F20B463246FCF7C6F80B
:10428000824647F6601048F2A063CFF6FE70C0F297
:1042900001030AFB008001900020DDE90221E1FB1F
:1042A0000320A9FB021209FB0020A1FB0391324667
:1042B00000FB0318484602234146FCF7A7F8414695
:1042C00048F2A0680646824448460023C0F201082E
:1042D0004246FCF79BF847F66013019945F6C52264
:1042E000BBF1000FAF806C80CFF6FE73C0F67C226E
:1042F00006FB03000AFB080008444FEA5011A1FB2B
:1043000002124FEAD21101FB0300C5E90B101BD0CA
:10431000296905F12C000022002305E0B3FBFBF71F
:104320006C8807FB1B33AF8823441FFA8BF69BB2C4
:104330009E4298BF013721F812700132B5F800B0E3
:104340005A45EBD3D0E90010049AC2E9001005B039
:10435000BDE8F08F70B58EB00446C068416C21F4A2
:1043600000414164016821F001010160FDF7CAFDCF
:1043700009AD2846FEF772F8002629460C962089DA
:104380008DF834600138ADF82400E0880A960138D1
:104390000B90E068FDF7DEFEE0680222016841F064
:1043A00080010160416862F3061144F20702416036
:1043B000816891436022816094F8341007960192DD
:1043C000012202924FF0FF320591E18802EB510188
:1043D00001AA04910121FDF74FFFE068816941F0D6
:1043E00008018161416C41F4004141640EB070BD2F
:1043F0002DE9F04F85B002901298C1E9052348F2EB
:10440000A0671D4689460026C0F20107088113985F
:1044100081F834000021E2FB0751A5FB07A00191C0
:1044200001FB070BDDE90E085946E0FB0786504605
:1044300042463346FBF7EAFF3A460023FBF7E6FF26
:10444000A9F8060080B25946A0FB07235046FBF7A7
:10445000DDFF3A4600230446FBF7D8FF47F660111C
:1044600000220023CFF6FE7100FB0141C9E90701DC
:10447000E0FB0712A1FB07A002FB070BA8FB07014B
:1044800006FB0711DDE91062E6FB0723FBF7BEFF21
:104490003A460023FBF7BAFFA9F8000080B259465C
:1044A000A0FB07235046FBF7B1FF3A460023044622
:1044B000FBF7ACFF47F660180023CFF6FE7800FB51
:1044C0000841C9E909014CF25030019AA5FB0041AD
:1044D00002FB001620463A463146FBF797FF4EF2A4
:1044E00000420746204631460223C5F20B42FBF745
:1044F0008DFF024600FB087303A84946FFF738FE0C
:10450000D9F81000002818BFFBF759FFB9F8004090
:104510006000FBF725FF002CC9F810001BD0B9F88C
:104520000420B9F802100027002602F1010C00BF98
:104530000E44A5B2B6B2B5428EBF20F8172020F8BF
:1045400017C0B9F800400137A5B2B6FBF5F3AF428A
:1045500003FB1566ECD34846FFF7FCFE484600F027
:1045600087F9D9E90B01029AC2E9000105B0BDE85B
:10457000F08F00002DE9F04F83B000900F9848F2C3
:10458000A067C1E9052399464FF0000A0023884639
:10459000C0F2010708811098E2FB079A81F8340005
:1045A000A9FB07400AFB0706DDE90C023146E0FBE8
:1045B00007232046FBF72AFF3A460023FBF726FF96
:1045C000A8F8060080B23146A0FB07232046FBF77F
:1045D0001DFF3A4600230446FBF718FF47F6601B11
:1045E0000022CFF6FE7B00FB0B41C8E90701E0FB90
:1045F0000712A1FB070102FB07110E9AA8F8002081
:10460000A2FB0723FBF702FF3A4600230446FBF711
:10461000FDFE00FB0B413A460023C8E909014CF2BC
:104620005030A9FB00410AFB001620463146FBF73B
:10463000EDFE4EF200420746204631460223C5F207
:104640000B42FBF7E3FE024600FB0B7301A8414659
:10465000FFF78EFDD8F81000002818BFFBF7AFFE5B
:10466000B8F800406000FBF77BFE002CC8F8100093
:104670001BD0B8F80420B8F802100027002602F179
:10468000010C00BF0E44A5B2B6B2B5428EBF20F8F1
:10469000172020F817C0B8F800400137A5B2B6FBC4
:1046A000F5F3AF4203FB1566ECD34046FFF752FE2D
:1046B000404600F0DDF8D8E90B01009AC2E900019C
:1046C00003B0BDE8F08F00002DE9F04F85B00290F7
:1046D00010988B4648F2A06714461D460023C0F28E
:1046E000010708801199ABF8081012998BF8341063
:1046F000DDE90E21E2FB0713A0FB0762A1FB0680A8
:10470000CDE9006201FB02003A4603FB0609404680
:1047100000234946FBF77AFE4EF2004282464046AD
:1047200049460223C5F20B42FBF770FE47F66018BC
:104730004FF00009CBE905450023CFF6FE78E4FBF6
:10474000075900FB08A2E0FB0723A5FB074009FB74
:10475000070620463146FBF759FE3A460023FBF791
:1047600055FEABF8060080B23146A0FB0723204679
:10477000FBF74CFE3A4600230446FBF747FE00FBDE
:1047800008410022CBE90701E0FB0712A1FB07016A
:1047900002FB0711DDE90023FBF738FE3A46002350
:1047A0000446FBF733FE00FB08413A460023CBE901
:1047B00009014CF25030A5FB004109FB00162046D0
:1047C0003146FBF723FE4EF20042074620463146B3
:1047D0000223C5F20B42FBF719FE024600FB0873E9
:1047E00003A85946FFF7C4FCDBF81000002818BFE7
:1047F000FBF7E5FDBBF800406000FBF7B1FD002CC6
:10480000CBF810001BD0BBF80420BBF80210002727
:10481000002602F1010C00BF0E44A5B2B6B2B542AB
:104820008EBF20F8172020F817C0BBF800400137D2
:10483000A5B2B6FBF5F3AF4203FB1566ECD35846C1
:10484000FFF788FD584600F013F8DBE90B01029AE8
:10485000C2E9000105B0BDE8F08F0000C068016842
:1048600041F001010160006800F0010070470000A4
:104870002DE9F0438FB00446C06802F003F8054606
:10488000E06802F055F80646E06802F025F8814637
:10489000284601F07DFE20A03146875D785920F042
:1048A000010078512846FDF751F9E8464046FDF7EA
:1048B00075FA4FF4003003214FF40052CDE909900E
:1048C0004020029000200B90CDE90C102169079246
:1048D0004FF4806205924FF48072039201914FF47D
:1048E000006221880E900891E16806920490424689
:1048F00001F13400314600902846FDF705FA785959
:1049000040F001007851E068C16841F48071C160F5
:104910000FB0BDE8F08300BF102840587088A0B8E1
:10492000B0B586B00D46044610302421FBF72DFFAC
:10493000E560286820F0010028602846FDF7E2FACB
:1049400003200290022001900020CDE90300E068DE
:1049500001F06CFF0090E06801F03CFF0590E0681A
:1049600001F0D0FE00206946C4F20200FDF71CFAF7
:10497000E06801F06FFE204606B0B0BD10B50446F9
:104980000069002818BF01F042F9204610BD01213E
:1049900080F848107047B0B5054621F00F000C466E
:1049A000B0F5887F10D0B0F5807F24D195F849000C
:1049B000D8B9012085F8490005F1500095F8481054
:1049C00089B1FCF763FA10E095F84A0030B901208C
:1049D00085F84A0005F1D800FCF75CFA05EBC40045
:1049E000A0F5F56005E0FCF74DFA05EBC400A0F575
:1049F000F66003C8B0BDFCF7BDF9F0B581B007465D
:104A000021F00F001C4615460E46B0F5887F10D0E9
:104A1000B0F5807F26D197F84900D8B9012087F8F2
:104A2000490007F1500097F8481089B1FCF72EFAB9
:104A300010E097F84A0030B9012087F84A0007F1E2
:104A4000D800FCF727FA07EBC600A0F5F56005E0F3
:104A5000FCF718FA07EBC600A0F5F660C0E90054B1
:104A600001B0F0BDFCF786F990F88101704710B5F0
:104A700082B004460020694601AACDE90000D4F8BE
:104A8000780101F0F7FCDDE9002301462046FDF73F
:104A900017FE0838B0FA80F0400902B010BD21F0CE
:104AA0001F00A0F58070B0FA80F04009704780B513
:104AB0000168CA684FF0FF319047002080BD083080
:104AC00000F076B92DE9F04F8BB00991044600252E
:104AD00013465068B5EBD00F00F0B6806268C60888
:104AE0000AA809A90025CDE90062CDE902310490A8
:104AF00006A8002100F048FF0699002900F0A480D4
:104B0000089A481EB142126812F830C002EBC00089
:104B100090F801E090F802A090F803B002D14FF0B5
:104B2000FF3111E012F8316002EBC1014A788F7851
:104B3000CB7846EA022247EA032342EA034202F024
:104B4000804342EA43021144021D0BD01378567889
:104B50009778D57847EA052543EA062343EA0547CF
:104B6000012F01D100256FE0002F21DB07F08043EA
:104B700047EA43039D5C1A4453789678D77845EA10
:104B8000032346EA072543EA0547B7F1FF3F12DD55
:104B900007F080434FF0000847EA430303EB0209A4
:104BA000134653F8045F2D0E03EB85031F1D15E01C
:104BB0004FF0010801E04FF00008C7F30366022E32
:104BC00014D0012E0CD0002E42D145F62359171DCA
:104BD000B8F1000F18BF0027C0F60009002617E043
:104BE00045F62B590026C0F6000904E045F6335976
:104BF0000126C0F60009C7F30747002F3B4618BF40
:104C0000012303EA0803012B22D002EB87031F1DB7
:104C10004CEA0E234AEA0B25C4F8782104F5AC725D
:104C2000002E43EA054303F0804543EA45034FF075
:104C30000105184482E8830218BF0226B8F1000F6C
:104C400018BF0126C4F86C6128460BB0BDE8F08F90
:104C5000FCF790F8B0B582B0044600680D464FF0FE
:104C6000FF31C2682046904749F6C8714AF228428F
:104C7000C0F60001C0F600020091511A019107D060
:104C800020F001006A46411B2046FFF71BFF10B9C8
:104C9000012084F8800102B0B0BD10B5044690F840
:104CA000800168B92046FFF7E2FE012818BF10BD59
:104CB00020680121426B2046904794F8800108B19A
:104CC000002010BDD4F8680170B120686FF00101B8
:104CD000C268204690472168D4F868210B690244D5
:104CE00020466FF001019847012010BD0C2906DD18
:104CF0000F2908D00E290AD00D2906D009E08A1CF8
:104D000003D04A1C05D1443008E03C3006E0403076
:104D100004E00C2904D800EB8100083000687047DB
:104D200080B5FCF727F810B500F10804204600F024
:104D300009FA2046BDE81040FCF76CBD0C2908DDDF
:104D40000F290AD00E2904BF026470470D2906D02E
:104D500007E08B1C03D04B1C03D142647047C26335
:104D600070470C299EBF00EB81008260704780B5C0
:104D7000FCF700F8B0B500F5B075D0E956CE01F1FA
:104D800008073CCD3CC7C1E900CE00F5B8752CCD75
:104D9000D0F87C01486201F118002CC0B0BD103978
:104DA000002011F1130F88BF0120704770470000E9
:104DB0008A1C612A00F26A8049F67260C0F600001F
:104DC000DFE812F062007D007E0080008200840037
:104DD000860088008A008C008E009000920094006B
:104DE0009600620098007D007C007C007C007C00C6
:104DF0007C007C007C007C007C007C007C007C00D3
:104E00007C007C007C007C007C007C007C007C00C2
:104E10007C007C007C007C007C007C007C007C00B2
:104E20007C007C007C007C007C007C007C007C00A2
:104E30007C007C007C007C007C007C007C007C0092
:104E40007C007C007C007C009A009C009E00A000FE
:104E5000A200A400A600A800AA00AC00AE00B0000A
:104E6000B200B400B600B800BA00BC00BE00C0007A
:104E7000C200C400C600C800CA00CC00CE00D000EA
:104E8000D200D400D600D800A7A07047A1F580704A
:104E90001F2813D8DFE800F01070727476787A7CDF
:104EA0007E80828486888A8C8E90929496989A9C32
:104EB0009EA0A2A4A6A8AAAC6DA070479CA0704713
:104EC00098A0704796A0704794A0704792A0704732
:104ED00090A070478EA070478CA070478AA0704742
:104EE00088A0704786A0704784A0704782A0704752
:104EF00080A070478DA070477DA070477BA0704751
:104F000079A0704777A0704775A0704773A070476D
:104F100071A070476FA070476DA070476BA070477D
:104F200069A0704767A0704765A0704763A070478D
:104F300061A070475FA070475DA070475BA070479D
:104F400059A0704757A0704755A0704753A07047AD
:104F500051A070474FA070474DA070474BA07047BD
:104F600049A0704747A0704745A0704743A07047CD
:104F700041A070473FA070473CA070473AA07047DF
:104F800038A0704736A0704734A0704732A07047F1
:104F900030A070472EA070472CA070472AA0704701
:104FA00028A0704726A0704724A0704722A0704711
:104FB00020A070471EA070471CA070471AA0704721
:104FC00018A0704716A0704714A0704712A0704731
:104FD00010A070470EA070470CA070470AA0704741
:104FE00008A0704706A0704704A0704702A0704751
:104FF00000A07047643331006433300064323900FC
:10500000643238006432370064323600643235006E
:10501000643234006432330064323200643231006E
:105020006432300064313900643138006431370053
:10503000643136006431350064313400643133004A
:105040006431320064313100643130006439000071
:1050500064380000643700006436000064350000E6
:1050600064340000643300006432000064310000E6
:105070006430000073333100733330007332390011
:1050800073323800733237007332360073323500B2
:1050900073323400733233007332320073323100B2
:1050A0007332300073313900733138007331370097
:1050B000733136007331350073313400733133008E
:1050C00073313200733131007331300073390000B5
:1050D000733800007337000073360000733500002A
:1050E000733400007333000073320000733100002A
:1050F0007330000072313200723131007231300091
:1051000072390000723800007237000072360000F9
:1051100072350000723400007233000072320000F9
:105120007231000072300000737000006C72000079
:10513000756E6B6E6F776E207265676973746572DA
:105140000000000010B5044690F8410048B194F802
:10515000401004F1480011B1FCF768FB01E0FCF7D6
:1051600061FB94F8420028B104F1D000BDE8104082
:10517000FCF760BB10BD70477047704770B51546AF
:10518000059A0E4689681C463AB149684068FBF7A3
:105190002FFE002818BF70BD02E0884200D070BD0D
:1051A00031462A462346BDE8704000F05BB8F0B5B2
:1051B00081B01646069A0C4689681D4662B147685A
:1051C00049683846FBF714FE10B32068416838463A
:1051D000FBF70EFE40BB04E0884219D021688842EC
:1051E00022D12069B0421BD06069B04218D06661FC
:1051F0002562D4E9090101310128A16205D1A06924
:10520000022804BF012084F836000420E0620BE08D
:105210006068B04208D1E069012818BFE56103E089
:10522000012D04BF0120206201B0F0BDD1F808C0FB
:10523000604518BF7047086948B190420CD0022001
:105240008861012081F83600486A013002E08B61F4
:105250000A610120486270478869022804BF8B6197
:10526000704770474FF0010C81F835C0486898428C
:1052700000D0704781F834C0009B086940B190426B
:1052800011D0012081F83600486A01304862704729
:10529000012B4FF001008B610A614862E9D1086B74
:1052A00001280BD0E5E78A69022A04BF8B611A4600
:1052B000086B012818BF7047012ADAD1012081F854
:1052C000360070472DE9F0418EB0154606468842FB
:1052D0002AD059B349F6F00349F6FC0208460024E7
:1052E000C0F60003C0F600021946002300F0A9FF33
:1052F0000746E0B14FF0FF30E846CDE90074029672
:105300002721039008F11000FBF73FFA01204146E6
:1053100001230C9038682A68C6693846B047069859
:10532000012804D104982860012400E000242046CC
:105330000EB0BDE8F08170B50446007A0D4610F05D
:10534000180F08D069686068FBF752FDB0FA80F06A
:105350004609304670BDA5B149F6F00149F608127C
:10536000284600230026C0F60001C0F6000200F027
:1053700068FF0028EDD0007A10F0180FE2D1601B12
:10538000E4E70026E5E72DE9F0410646002940D094
:1053900049F6F00849F61417C0F60008C0F60007F1
:1053A000084641463A460023002500F04AFF0446DD
:1053B00080B3B168A068CA4310422AD1F068E2689D
:1053C000904210D0C9074FF0000518BF002821D027
:1053D00041463A46002300F034FF30B1E16806460A
:1053E0000029DDD115E0012514E0F06888B149F607
:1053F000F00149F6441200230025C0F60001C0F672
:10540000000200F01EFF28B1E168BDE8F04100F0A5
:1054100004BA00252846BDE8F0812DE9F0418EB0A0
:10542000064649F6E80014460F46C0F600008142E1
:1054300008D030463946FFF77EFF38B1206818B1F2
:10544000006800E00020206001251EE0E7B149F679
:10545000F00149F61412384600230025C0F6000179
:10546000C0F6000200F0EDFE074670B1206808B1FA
:1054700000682060B068B96821EA0002520703D1D1
:10548000884310F0600F04D0002528460EB0BDE818
:10549000F081F868F3688342D6D049F69011C0F6DF
:1054A00000018B4217D0002BEED049F6F00149F6EF
:1054B000141218460023C0F60001C0F6000200F0E6
:1054C000C0FEC8B1317AC907DED0F9680EB0BDE8B8
:1054D000F041FFF758BF0028B6D049F6F00149F671
:1054E00020120023C0F60001C0F6000200F0A9FE61
:1054F000B0FA80F04509C8E7F0680028C4D049F642
:10550000F00149F644120023C0F60001C0F6000283
:1055100000F097FE40B1317AC907B5D0F9680EB0F6
:10552000BDE8F04100F079B9F0680028ACD049F648
:10553000F00149F6FC0200230025C0F60001C0F688
:10554000000200F07EFE064600289ED0F868002883
:105550009AD049F6F00149F6FC0200230025C0F676
:105560000001C0F6000200F06CFE074600283FF480
:105570008CAF4FF0FF30E846CDE900750296272149
:10558000039008F11000FBF700F9012041460123C8
:105590000C9038682268C6693846B04706980128DA
:1055A0007FF473AF206800283FF44EAF04984AE7B9
:1055B0002DE9F04383B007468868DDE90A949846F0
:1055C00015460E4684B141687868FBF711FC68B156
:1055D000B8682A46434601684F693146CDE90094D0
:1055E000B84703B0BDE8F0838742F1D131462A467F
:1055F000434603B0BDE8F043FFF734BE2DE9F04366
:1056000083B0DDF8289007468868984615460C4612
:10561000B9F1000F16D07E6841683046FBF7E8FB11
:10562000002842D0206841683046FBF7E1FB70B1AA
:10563000B8682A46434601688F692146CDF8009034
:10564000B84743E0874230D020688742F0D12069D4
:10565000A84233D06069A84230D0C4F82080E06A04
:10566000042833D000262A462B46A686B86801684F
:105670004F690121CDE900192146B84794F835005A
:1056800018B194F8340070B901266561D4E90901B4
:1056900001310128A16205D1A069022804BF0120BF
:1056A00084F8360086B103200FE06068A8420DD16F
:1056B000E069012818BFC4F81C8007E0B8F1010FA9
:1056C00004BF0120206201E00420E06203B0BDE8D5
:1056D000F083D1F808C0604505D08068D0F800C0DC
:1056E000DCF81CC06047086948B190420CD0022029
:1056F0008861012081F83600486A013002E08B6140
:105700000A610120486270478869022804BF8B61E2
:10571000704770472DE9F04F85B007460D46886801
:10572000DDE90E191C469046B9F1000F049165D0D1
:1057300041687868FBF75CFB002861D095F834007D
:10574000D7F80CA0039095F835000290002085F85A
:10575000340085F835007A69111212F0010F1CBF70
:105760002068415892073869049A03685E6958BFF7
:10577000022263182946CDE900294246B047BAF112
:10578000020F32DB07EBCA0007F1180B00F1100A19
:1057900095F8360048BB95F8340030B1A869012867
:1057A00023D0387A800706D41FE095F8350010B171
:1057B000387AC00719D00020A886DBF8042011121F
:1057C00012F0010F1CBF2068415892075BF8080BCC
:1057D000049A03685E6958BF022263182946CDE91E
:1057E00000294246B047D345D2D3029885F8350008
:1057F000039885F8340005B0BDE8F08F87429DD14D
:1058000029464246234605B0BDE8F04FFFF72ABDC2
:10581000401AB0FA80F04009704710B50446B1B1A3
:1058200049F6F00349F644120846C0F60003C0F6F4
:1058300000021946002300F004FD40B1A26881680F
:10584000D243114203D1C168E2688A4201D00020EC
:1058500010BD00692169081AB0FA80F0400910BD36
:1058600070B5044649F6E80015460E46C0F600003D
:10587000814223D020463146FFF75DFDB0BBDEB14B
:1058800049F6F00149F64412304600230025C0F6DF
:105890000001C0F6000200F0D4FC40B3A1688268A9
:1058A00022EA01035B0707D1914311F0600F03D196
:1058B000C168E2688A421CD0002518E0E06880B127
:1058C00049F6F00149F620120023C0F60001C0F6A7
:1058D000000200F0B6FC20B149F62060C0F60000DE
:1058E00003E049F62860C0F600002860012528463C
:1058F00070BD00692169081AB0FA80F0400970BDD6
:1059000000A070477374643A3A6261645F657863BB
:10591000657074696F6E000000A070476261645F1B
:1059200061727261795F6C656E6774680000000077
:1059300000A070476261645F61727261795F6E6539
:10594000775F6C656E6774680000000000A07047A8
:105950007374643A3A6261645F616C6C6F630000F7
:1059600000F055B949F6E451C0F600010831016074
:10597000704700F04CB949F6F851C0F60001083103
:105980000160704700F043B92DE9F04F099E741A89
:1059900024D00C9ED3F800E0D6F800C001EB540BE5
:1059A0000EEBCB071EF83B8097F801A097F802900A
:1059B000FE7848EA0A2849EA062648EA064606F03A
:1059C000804546EA450566083D44AC4522BF611E58
:1059D0008E1B0BF10101002E3446DFD10EC0BDE855
:1059E000F08F49F60C61C0F6000108310160704784
:1059F00000F00DB97047704740F2A811BFF35F8FF8
:105A0000C2F2000151E8000F41E80002002AF9D17A
:105A100080B5BFF35F8F00F041F8000010B58047FC
:105A200007A000F024FD00F0B0F90FA000F01FFD6A
:105A3000044600F0FCFA204600F080F900F07EF900
:105A40007465726D696E6174655F68616E646C65C2
:105A50007220756E65787065637465646C79207208
:105A6000657475726E6564007465726D696E6174DB
:105A7000655F68616E646C657220756E65787065CF
:105A8000637465646C7920746872657720616E2038
:105A9000657863657074696F6E00000080B580473B
:105AA00001A000F0E4FC00BF756E6578706563745A
:105AB00065645F68616E646C657220756E65787090
:105AC00065637465646C792072657475726E656463
:105AD0000000000040F2A411BFF35F8FC2F200018A
